:020000040040BA
:10000000C8064020E5014000E1014000E101400058
:10001000E1014000E1014000E1014000000000007A
:10002000000000000000000000000000E1014000AE
:10003000E101400000000000E1014000E10140005A
:10004000E1014000E1014000E1014000E101400028
:10005000E1014000E1014000E1014000E101400018
:10006000E101400000000000E1014000E10140002A
:10007000E1014000E1014000E1014000E1014000F8
:10008000E1014000E1014000E1014000E1014000E8
:10009000E1014000E1014000E1014000E1014000D8
:1000A000E1014000E1014000E1014000E1014000C8
:1000B000E1014000E1014000E1014000E1014000B8
:1000C000E1014000E1014000E1014000E1014000A8
:1000D000E1014000E1014000E1014000E101400098
:1000E000E1014000E1014000E1014000E101400088
:1000F000E1014000E1014000E1014000E101400078
:10010000E1014000E1014000E1014000E101400067
:10011000E1014000E101400000000000000000009B
:10012000E1014000E1014000E1014000E101400047
:10013000E1014000E1014000E1014000E101400037
:10014000E1014000E1014000E1014000E101400027
:10015000E1014000E1014000E1014000E101400017
:10016000E1014000E101400010B5054C237833B9AE
:10017000044B13B10448AFF300800123237010BD7A
:100180006400402000000000581940000C4B43B1AF
:100190000C480D4910B5AFF300800C48036823B933
:1001A00010BD0A48036833B97047094B002BF7D0DC
:1001B000BDE810401847064B002BF5D0184700BF8C
:1001C0000000000058194000680040205819400005
:1001D0000000000008B5014B984708BD7D034000B2
:1001E000FEE7000008B5104B104A9A4209D00E4BAA
:1001F0000E4A03E011681960043304320C498B4243
:10020000F8D30C4B02E000221A6004330A4A9342EE
:10021000F9D30A4A0A4B23F07F039360094B9847AE
:10022000094B9847FEE700BF0000402058194000E6
:100230006400402064004020C400402000ED00E045
:1002400000004000710E4000690D40000A4B1A6F1B
:1002500022F010021A675A6F22F010025A67102219
:100260005A601A6F22F008021A675A6F22F00802C9
:100270005A6708225A607047000E0E40044B9B6973
:1002800013F4002F03D14FF40022014B1A61704781
:1002900000060E4008B5044B984704490448054B36
:1002A0009847054B984708BD7D02400000800140FB
:1002B000A0004020690440004D02400008B50248FB
:1002C000024B984708BD00BF10E000E0D503400096
:1002D0000F4B1A6F22F400121A675A6F22F40012A1
:1002E0005A674FF400125A600A4AD2F8143143F0A8
:1002F0001003C2F81431084B1A6F42F010021A674B
:100300005A6F42F010025A6710225A60704700BFBD
:10031000000E0E400080084000100E40044B9B6908
:1003200013F4804F03D14FF48042014B1A617047A0
:1003300000060E4008B5064B9847064B9847064BFB
:100340009847024605490648064B984708BD00BF36
:100350001D034000D1024000ED0C4000008002402F
:10036000900040206D064000034B4FF400021A63DA
:100370001A611A60704700BF000E0E4008B5084BA6
:100380009847084B9847084B9847084B9847084AA6
:10039000536843F400435360064B984708BD00BFC1
:1003A0006907400095024000BD024000350340004F
:1003B00050180E4069034000EFF31083036072B6DB
:1003C000BFF35F8F7047BFF35F8F036883F31088BD
:1003D0007047000008B5024B1860024B984708BDF3
:1003E000800040208108400010B5044B1C68044B7D
:1003F000984701462046034B984710BD8000402097
:100400005D0740008D08400010B584B00389ADF849
:100410000430144602924FF40043ADF806300391C5
:1004200001A91438034B984710B9204604B010BDF9
:100430000446FAE77109400010B584B00389ADF8AD
:1004400004301446029248F20103ADF806300391DD
:1004500001A91438034B984710B9204604B010BDC9
:100460000446FAE77109400038B50D4604465E229D
:100470000849003018BF0120074B984729462046FD
:10048000064B9847034618B9054AA261054A6261BE
:10049000184638BDCC174000310740000509400020
:1004A000390440000904400008B5014B984708BDD5
:1004B0004D094000C1F3090102F480620A438283BE
:1004C0001046704770B586B0044616461D468DF836
:1004D0000710838BADF80C30012304930023ADF893
:1004E0000E300DF10703059303A9094B9847034606
:1004F00010B1184606B070BD4FF40043ADF80E3091
:100500000596049503A92046014B98470346F0E75A
:100510007109400070B586B0044616461D468DF838
:100520000710838BADF80C30012304930023ADF842
:100530000E300DF10703059303A9094B98470346B5
:1005400010B1184606B070BD48F20103ADF80E3088
:100550000596049503A92046014B98470346F0E70A
:1005600071094000143008600020704770B51646CD
:1005700004460D46002818BF002914BF01200020A2
:1005800034220449044B98472368324629462046C2
:10059000984770BDE817400031074000F8B516468F
:1005A00005460F46002818BF002902D00ABB0020CC
:1005B00000E00020F1221049104B984705F1080493
:1005C00020460F4B98470028F8D00025795D20463B
:1005D0000C4B984720460A4B98470028FAD0013523
:1005E000B542F3D32046084B98470028FAD0284656
:1005F000F8BD0120DEE700BFFC17400031074000D6
:10060000750C40002D0C40009D0C40002DE9F04180
:10061000174605468846002818BF002902D0D2B9DF
:10062000002000E000204FF486720C490C4B9847E4
:10063000002605F1080420460A4B98470028F8D008
:100640002046094B984708F806000136BE42F0D311
:100650003046BDE8F0810120E5E700BFFC1740000F
:1006600031074000C50C4000510C400038B504462D
:100670000D46002818BF002914BF01200020342295
:100680000749084B9847294604F10800064B98474C
:10069000034618B9054A6260054A2260184638BD0B
:1006A000FC17400031074000C10B40000D06400020
:1006B0009D05400010B5044653220649003018BF7E
:1006C0000120054B984704F10800044B984700208F
:1006D00010BD00BFFC17400031074000F90B40007F
:1006E00038B505460C46002818BF002914BF012064
:1006F000002069220249034B98472560002038BD3D
:10070000FC1740003107400010B50446CE220549D1
:10071000003018BF0120044B984704F10800034B38
:10072000984710BDFC17400031074000750C400091
:1007300000B900BE704700000346064A126822B1A5
:10074000044A10680344136070470349014A11606A
:10075000F6E700BF84004020C80640204FF496739F
:1007600003FB00F07047000000B583B001A80E4BFA
:1007700098470E4AD2F8883043F47003C2F88830A4
:10078000BFF34F8FBFF36F8F01A8094B9847094AFA
:10079000136823F4706343F4C0631360064B9847F7
:1007A00003B05DF804FB00BFB903400000ED00E0BA
:1007B000C7034000000C0E40590840000E490A6A69
:1007C00022F002020D4B13430B620B4B9B6E13F096
:1007D000010FFAD0084B196A094A0A431A62996A4A
:1007E000084A0A409A62084A9A62034B9B6E13F0C9
:1007F000020FFAD0704700BF00060E40013E3700DE
:1008000000003701FFFF00F8013F1820114A136B69
:1008100023F0700313630F4B9B6E13F0080FFAD095
:100820000C4A136B23F4407343F480731363094B36
:100830009B6E13F0080FFAD0064A136B23F00303E4
:1008400043F002031363034B9B6E13F0080FFAD0BF
:10085000704700BF00060E4008B5024B9847024B98
:10086000984708BDBD0740000D084000034B6FF0DE
:100870007F425A6005221A60704700BF10E000E016
:1008800008B5014B984708BD6D084000080E0DE003
:100890000D4B6FF07F40586098600B4B1B6813F452
:1008A000803FFAD001F17F4101311046431EDAB298
:1008B0000028EDD1044B59609960034B1B6813F479
:1008C000803FFAD0704700BF10E000E000233BB14A
:1008D0000020704703EB4304E300084618440CE093
:1008E00010B403EB4301CA0005498A588242F1D093
:1008F0000133DBB2002BF4D000205DF8044B7047CD
:100900001818400038B504460D46002818BF0029C5
:1009100014BF01200020782209490A4B984725611D
:100920002846094B984743682B60236982689A637D
:100930002369C2685A64236902691A61002038BDBC
:100940003018400031074000CD08400010B5044683
:1009500095220549003018BF0120044B98472369B0
:1009600004221A60002010BD3018400031074000FA
:1009700038B504460D46002818BF002914BF0120D1
:100980000020BA225249534B9847638813F4807F62
:1009900040F09A806B8813F0010F18D16B889BB2DE
:1009A00043F480736B802B8813F4806F5FD02269CF
:1009B0001B0A43F078031B0403F4FE0343F4807323
:1009C000536023692A78DA60002001465CE06B8876
:1009D0009BB243F480736B802B8813F4806F22D01A
:1009E00022691B0A43F078031B0403F4FE0343F45B
:1009F0008853536023692A78DA6023696A68012A78
:100A000019D001221A6000216B68994222D2236911
:100A10001A6A12F0020F10D11B6A13F4807FF6D00D
:100A20006FF0010038BD22691B0403F4FE0343F498
:100A300080535360E1E70322E4E7AA681B6B535439
:100A40006B68023B994201D00131DDE72369022244
:100A50001A60F9E723691B6A13F0010FFAD0638863
:100A60009BB223F480739BB26380002038BD22695F
:100A70001B0403F4FE035360A6E76FF0010078B98E
:100A8000AB685B5C536301316B68994208D22269A1
:100A9000136A13F4807FF0D113F0040FF7D0EEE760
:100AA0006B8813F4004F06D163889BB223F48073E4
:100AB0009BB2638038BD236902221A6023691B6AD6
:100AC00013F0010FFAD0EFE76FF0050038BD00BF5B
:100AD000301840003107400010B5044640F22B2288
:100AE0000549003018BF0120044B984704482044B2
:100AF000C0F3873010BD00BF5818400031074000D8
:100B000000C0FDBF10B5044640F287220E490030F8
:100B100018BF01200D4B984720460D4B98470023E6
:100B200043B140F2912208490020084B9847002326
:100B3000184610BD03EB43018A0006498A5C9042C7
:100B4000F6D00133DBB2EBE7581840003107400024
:100B5000D90A40004C18400010B5044640F29E22CD
:100B60001149003018BF0120104B98472046104B08
:100B70009847104BC4F8E430002363606362A362BB
:100B8000AC2222604FF4807222604FF40022226077
:100B900000EB40008100084A0A4452686260074A3C
:100BA0002262184610BD00BF5818400031074000AF
:100BB000050B4000004153554C184000250004002F
:100BC000F8B50C46094E0746BD223146003018BF25
:100BD0000120074DA847BE223146201C18BF012026
:100BE000A8473C602046034B9847F8BD5818400082
:100BF00031074000590B400070B50A4E044640F2E0
:100C000005123146003018BF0120074DA84724685F
:100C100040F2C7223146201C18BF0120A8475023AC
:100C2000236070BD581840003107400038B50C46AD
:100C300005464FF4D4720449003018BF0120034B1D
:100C400098472B68DC6138BD5818400031074000D8
:100C500010B504464FF4DD720449003018BF01207E
:100C6000034B984723689869C0B210BD58184000DC
:100C70003107400010B5044640F2C3120549003068
:100C800018BF0120044B984723685869C0F34000FF
:100C900010BD00BF581840003107400010B5044691
:100CA0004FF4E6720549003018BF0120044B984705
:100CB00023685869C0F3402010BD00BF5818400099
:100CC0003107400010B504464FF4EF72054900307B
:100CD00018BF0120044B98472368586900F00100B1
:100CE00010BD00BF58184000310740000020704779
:100CF0002DE9F0410C461646174D4FF400620146AF
:100D00002846164B98470223324601212846DFF831
:100D10005480C0470120124FB847B6F9002093B263
:100D20001B029BB2C2F30722134323F4E04303EBFD
:100D300083035A0032800223224619462846C047C0
:100D40000120B847228813029BB243EA1223DB102A
:100D50009B002380BDE8F081A0004020B504400046
:100D6000E9034000150540002DE9F04198B0314BF2
:100D70009847314C17A92046304B98472046304BB6
:100D80009847304C07A920462F4B984720462F4BB9
:100D900098470025ADF81A50ADF81850ADF8165028
:100DA000ADF8145018AE40F29F1326F84E3D4FF4A4
:100DB000006240212046DFF8B480C047022332465B
:100DC00029462046224FB8474FF400624121204671
:100DD000C0470223324629462046B8470DF11A0281
:100DE0000DF1160140201B4CA04706AA05A9412081
:100DF000A047BDF91A30BDF814200292BDF91820A1
:100E00000192BDF816200092134A3C2108A8134C09
:100E1000A0473C2208A91798114B98471798114BE7
:100E200098470028FAD03C22002108A80E4B98478A
:100E3000D4E700BFD501400090004020E10640000B
:100E4000B5064000A000402065054000A904400010
:100E5000C5044000F10C400074184000C90E400069
:100E60006D05400009074000B90E4000B504400080
:100E700070B50D4E0D4CA41BA4100025A54209D140
:100E80000B4E0C4C00F058FDA41BA4100025A542ED
:100E900005D170BD56F8253098470135EEE756F874
:100EA000253098470135F2E74419400044194000C5
:100EB000441940004819400002440346934200D1BF
:100EC000704703F8011BF9E70CB430B5174B0C1E43
:100ED0009DB01D6808DA8B232B604FF0FF301DB0EA
:100EE000BDE8304002B070474FF40273ADF81430E3
:100EF00014BF04F1FF332346049307934FF6FF73A7
:100F000002900690ADF81630209A21AB02A928462F
:100F1000019300F0C7F8431CBCBF8B232B60002C4F
:100F2000DDD0029B00221A70D9E700BF00004020EC
:100F300070B5CD1C25F0030508350C2D38BF0C25E8
:100F4000002D064601DBA94203D90C2333600020A3
:100F500070BD00F0BAFB234A1468214691B9224CB7
:100F600023681BB9304600F027FB20602946304635
:100F700000F022FB431C26D10C233360304600F0E6
:100F8000A5FBE4E70B685B1B1AD40B2B0FD90B6096
:100F9000CD50CC18304600F099FB04F10B00231D16
:100FA00020F00700C31A1BD05A42E25070BD8C4299
:100FB0000DBF63684B686360136018BF0C46E9E7B8
:100FC0000C464968CAE7C41C24F00304A04205D0BB
:100FD000211A304600F0F0FA0130CDD02560D9E773
:100FE00070BD00BF880040208C0040202DE9F047F4
:100FF0008E689E4282460C469146984635D88A892C
:1010000012F4906F31D0256809696F1A656902235F
:1010100005EB450595FBF3F508F101033B449D42C3
:1010200038BF1D46530531D52946FFF781FF0646D7
:1010300050B90C23CAF80030A38943F04003A381C0
:101040004FF0FF30BDE8F0873A46216900F018FB09
:10105000A38923F4906343F08003A3812661656133
:101060003E44ED1B2660A5604646464528BF4646E1
:1010700032464946206800F00EFBA3689B1BA36024
:1010800023681E4426600020BDE8F0872A4600F051
:101090006DFB06460028E1D12169504600F018FB9F
:1010A000C7E700002DE9F04F9DB0804603938B8980
:1010B0001C060D4616460FD50B696BB94021FFF78C
:1010C00037FF2860286128B90C23C8F800304FF09A
:1010D000FF30C5E040236B610023099320238DF886
:1010E000293030238DF82A304FF0010B37463C462B
:1010F00014F8013B002B3CD1B7EB060A0BD053464A
:10110000324629464046FFF771FF013000F0A380C8
:10111000099B534409933B78002B00F09C800023EB
:101120004FF0FF3204930793059206938DF85330E6
:101130001A9305222178504800F052FA671C049B4C
:10114000D8B9D90644BF20228DF853201A0744BFCE
:101150002B228DF8532022782A2A16D0079A0021B4
:101160000A20274601343B78303B092B51D9C9B1BD
:1011700011E0252BC0D02746B9E73F4A801A0BFA69
:1011800000F0184304903C46D3E7039A111D1268FF
:101190000391002A01DB079204E0524243F002036C
:1011A000079204933B782E2B0ED17B782A2B07F1E4
:1011B000010132D1039B1A1D1B680392002BB8BF9B
:1011C0004FF0FF33023705932C4C39780322204629
:1011D00000F006FA38B14023001B03FA00F0049B2C
:1011E000034304930137397825488DF828100622E7
:1011F0007E1C00F0F5F9002835D0224BFBB9039B8B
:10120000073323F0070308330393099B4B440993E7
:101210006CE700FB02320121A3E700230593184687
:101220000A240F4601313A78303A092A03D9002BB3
:10123000CAD00590C8E704FB00200123F1E703AB07
:1012400000932A46104B04A94046AFF30080B0F14A
:10125000FF3F8146D9D1AB895B063FF538AF09988E
:101260001DB0BDE8F08F03AB00932A46064B04A9DE
:10127000404600F081F8EAE7041940000A194000EE
:101280000E19400000000000ED0F40002DE9F0476E
:1012900091461F468A680B69DDF820809342B8BFEB
:1012A0001346C9F8003091F8432006460C4612B1A7
:1012B0000133C9F800302368990642BFD9F80030DD
:1012C0000233C9F80030256815F0060507D104F18E
:1012D000190AE368D9F800209B1A9D4229DB94F88B
:1012E00043302268003318BF012392062ED404F144
:1012F000430239463046C047013021D02368E568B3
:10130000D9F8002003F00603042B08BFAD1AA36828
:1013100022690CBF25EAE57500259342C4BF9B1ADC
:10132000ED184FF000091A344D451BD10020BDE8DF
:10133000F0870123524639463046C047013003D179
:101340004FF0FF30BDE8F0870135C2E7E1185A1CC5
:10135000302081F84300224494F8451082F843106D
:101360000233C4E70123224639463046C0470130E4
:10137000E6D009F10109D7E72DE9F04317460A7EC7
:1013800085B06E2A984606460C460C9B01F1430E2A
:1013900000F0BC801AD8632A2ED00AD8002A00F0A8
:1013A000C880582A00F08A8004F1420584F842205F
:1013B0002AE0642A01D0692AF6D121681A6811F05E
:1013C000800F23D0111D1960136827E0732A00F0E5
:1013D000B48008D86F2A2AD0702AE5D10A6842F072
:1013E00020020A6003E0752A21D0782ADCD1782215
:1013F00084F845206E4964E01A6801F14205111D28
:101400001960136884F842300123A3E011F0400F03
:1014100002F104011960D7D0B2F90030002B03DAD1
:101420002D225B4284F8432062490A2217E020689B
:10143000196810F0800F03D0081D18600B6806E0D3
:1014400010F0400F01F104001860F7D00B885949E3
:101450006F2A14BF0A220822002084F8430065681E
:10146000A560002DC0F29C80206820F00400206060
:10147000002B3FD1002D40F095807546082A0BD1F6
:101480002368DA0708D5236962689A42DEBF3023F1
:1014900005F8013C05F1FF35AEEB05032361CDF8FE
:1014A00000803B4603AA21463046FFF7EFFE01309D
:1014B00055D14FF0FF3005B0BDE8F08381F84520ED
:1014C0003C492268186812F0800F00F104051D6085
:1014D00001D0036802E05506FBD50388D00744BF5E
:1014E00042F0200222601BB9226822F02002226012
:1014F0001022B1E77546B3FBF2F002FB1033CB5C70
:1015000005F8013D03460028F5D1B7E708681A68D9
:10151000496910F0800F04D0101D1860136819601D
:1015200007E010F0400F02F1040018601368F6D0D5
:101530001980002323617546B1E71A68111D1960EF
:10154000156862680021284600F04AF808B1401B7F
:10155000606063682361002384F843309FE7236958
:101560002A4639463046C0470130A2D023689B073F
:1015700007D5002504F11909E368039A9B1A9D42D7
:1015800005DBE068039B9842B8BF184693E7012348
:101590004A4639463046C04701308AD00135EBE72C
:1015A000002BA7D10B7884F8423004F1420565E79F
:1015B000261940001519400038B5064C0023054691
:1015C00008462360FFF7B8F8431C02D1236803B133
:1015D0002B6038BDC000402000000000000000006B
:1015E00001F0FF01102A2BDB10F0070F08D010F8D4
:1015F000013B013A8B422DD010F0070F42B3F6D1D8
:10160000F0B441EA012141EA014122F007047FF0F0
:1016100000070023F0E80256083C85EA010586EA47
:10162000010685FA47F5A3FA87F586FA47F6A5FA83
:1016300087F68EB9EED1F0BC01F0FF0102F007028F
:1016400032B110F8013B013A83EA010313B1F8D13A
:101650000020704701387047002D06BF354603381B
:10166000073815F0010F07D1013015F4807F02BF54
:10167000013015F4C03F0130F0BC0138704700BFA5
:1016800010B5431E0A44914200D110BD11F8014B20
:1016900003F8014FF7E7884210B501EB020303D8C6
:1016A000421E99420CD110BD9842F9D28118D21A2B
:1016B000D34200D110BD13F8014D01F8014DF7E7F9
:1016C00011F8014B02F8014FEBE77047704700003B
:1016D00038B50546002945D051F8043C0C1F002BB5
:1016E000B8BFE418FFF7F1FF1F4A1368104633B97B
:1016F000636014602846BDE83840FFF7E7BFA342A7
:101700000CD921686218934204BF1A685B68636051
:1017100004BF521822600460ECE713465A680AB10D
:10172000A242FAD919685818A0420BD12068014486
:10173000581882421960DDD1106852685A6001441D
:101740001960D7E702D90C232B60D3E72068211852
:101750008A4204BF11685268626004BF09182160A0
:101760005C60C7E738BD00BF88004020F8B5074679
:1017700014460E4621B91146BDE8F840FFF7D8BB24
:1017800022B9FFF7A5FF25462846F8BD00F014F85A
:1017900084420FD921463846FFF7CAFB0546002888
:1017A000F2D031462246FFF76BFF31463846FFF74D
:1017B0008FFFE9E73546E7E751F8040C0028A0F170
:1017C0000400BCBF0B58C018704700002E2E2F68B5
:1017D000616C2F7372632F68616C5F6932635F6D38
:1017E0005F73796E632E63002E2E2F68616C2F73EA
:1017F00072632F68616C5F696F2E63002E2E2F68F5
:10180000616C2F7372632F68616C5F7573617274A2
:101810005F73796E632E630000800140200000003A
:101820000000000000000000BABA0200F049020007
:101830002E2E2F68706C2F74776968732F68706C08
:101840005F74776968732E63000000000100000078
:10185000C0081000250004002E2E2F68706C2F7514
:10186000736172742F68706C5F75736172742E632C
:1018700000000000567331287556292C25642C561B
:101880006231286D56292C25642C567332287556E2
:10189000292C25642C566232286D56292C25640A81
:1018A0000000000000000000000000000000000038
:1018B0000000000000000000000000000000000028
:1018C0000000000000000000000000000000000018
:1018D0000000000000000000000000000000000008
:1018E00000000000000000000000000000000000F8
:1018F00000000000000000000000000000000000E8
:1019000000000000232D302B2000686C4C00656621
:101910006745464700303132333435363738394140
:101920004243444546003031323334353637383956
:101930006162636465660000F8B500BFF8BC08BC6E
:101940009E4670478D014000F8B500BFF8BC08BC4A
:081950009E467047690140004A
:101958000400402000000000C4184000E4184000C3
:10196800A418400000000000000000000000000073
:10197800000000000000000000000000000000005F
:10198800000000000000000000000000000000004F
:10199800000000000000000000000000000000003F
:1019A800000000000000000000000000000000002F
:0419B800000000002B
:0400000500400000B7
:00000001FF
